{
  "contractName": "Bounties",
  "abi": [
    {
      "constant": true,
      "inputs": [
        {
          "name": "",
          "type": "uint256"
        }
      ],
      "name": "bounties",
      "outputs": [
        {
          "name": "issuer",
          "type": "address"
        },
        {
          "name": "deadline",
          "type": "uint256"
        },
        {
          "name": "data",
          "type": "string"
        },
        {
          "name": "status",
          "type": "uint8"
        },
        {
          "name": "reward",
          "type": "uint256"
        },
        {
          "name": "acceptedFulfillmentId",
          "type": "uint256"
        },
        {
          "name": "fulfilledOn",
          "type": "uint256"
        },
        {
          "name": "cancelledOn",
          "type": "uint256"
        }
      ],
      "payable": false,
      "stateMutability": "view",
      "type": "function"
    },
    {
      "inputs": [],
      "payable": false,
      "stateMutability": "nonpayable",
      "type": "constructor"
    },
    {
      "anonymous": false,
      "inputs": [
        {
          "indexed": false,
          "name": "bountyId",
          "type": "uint256"
        },
        {
          "indexed": false,
          "name": "issuer",
          "type": "address"
        },
        {
          "indexed": false,
          "name": "deadline",
          "type": "uint256"
        },
        {
          "indexed": false,
          "name": "data",
          "type": "string"
        },
        {
          "indexed": false,
          "name": "reward",
          "type": "uint256"
        }
      ],
      "name": "BountyIssued",
      "type": "event"
    },
    {
      "anonymous": false,
      "inputs": [
        {
          "indexed": false,
          "name": "bountyId",
          "type": "uint256"
        },
        {
          "indexed": false,
          "name": "fulfillmentId",
          "type": "uint256"
        },
        {
          "indexed": false,
          "name": "fulfiller",
          "type": "address"
        },
        {
          "indexed": false,
          "name": "data",
          "type": "string"
        },
        {
          "indexed": false,
          "name": "date",
          "type": "uint256"
        }
      ],
      "name": "BountyFulfilled",
      "type": "event"
    },
    {
      "anonymous": false,
      "inputs": [
        {
          "indexed": false,
          "name": "bountyId",
          "type": "uint256"
        },
        {
          "indexed": false,
          "name": "fulfillmentId",
          "type": "uint256"
        },
        {
          "indexed": false,
          "name": "fulfiller",
          "type": "address"
        },
        {
          "indexed": false,
          "name": "fulfilledOn",
          "type": "uint256"
        },
        {
          "indexed": false,
          "name": "reward",
          "type": "uint256"
        }
      ],
      "name": "FulfillmentAccepted",
      "type": "event"
    },
    {
      "anonymous": false,
      "inputs": [
        {
          "indexed": false,
          "name": "bountyId",
          "type": "uint256"
        },
        {
          "indexed": false,
          "name": "cancelledOn",
          "type": "uint256"
        }
      ],
      "name": "BountyCancelled",
      "type": "event"
    },
    {
      "constant": false,
      "inputs": [
        {
          "name": "_data",
          "type": "string"
        },
        {
          "name": "_deadline",
          "type": "uint64"
        }
      ],
      "name": "issueBounty",
      "outputs": [
        {
          "name": "",
          "type": "uint256"
        }
      ],
      "payable": true,
      "stateMutability": "payable",
      "type": "function"
    },
    {
      "constant": false,
      "inputs": [
        {
          "name": "bountyId",
          "type": "uint256"
        },
        {
          "name": "_data",
          "type": "string"
        }
      ],
      "name": "fulfillBounty",
      "outputs": [],
      "payable": false,
      "stateMutability": "nonpayable",
      "type": "function"
    },
    {
      "constant": false,
      "inputs": [
        {
          "name": "bountyId",
          "type": "uint256"
        }
      ],
      "name": "cancelBounty",
      "outputs": [],
      "payable": true,
      "stateMutability": "payable",
      "type": "function"
    },
    {
      "constant": true,
      "inputs": [],
      "name": "getNumberOBounties",
      "outputs": [
        {
          "name": "",
          "type": "uint256"
        }
      ],
      "payable": false,
      "stateMutability": "view",
      "type": "function"
    },
    {
      "constant": true,
      "inputs": [
        {
          "name": "bountyId",
          "type": "uint256"
        }
      ],
      "name": "getNumberOfBountyFulfillments",
      "outputs": [
        {
          "name": "",
          "type": "uint256"
        }
      ],
      "payable": false,
      "stateMutability": "view",
      "type": "function"
    },
    {
      "constant": true,
      "inputs": [
        {
          "name": "bountyId",
          "type": "uint256"
        },
        {
          "name": "fulfillmentId",
          "type": "uint256"
        }
      ],
      "name": "showBountyFulfillment",
      "outputs": [
        {
          "name": "",
          "type": "bool"
        },
        {
          "name": "",
          "type": "address"
        },
        {
          "name": "",
          "type": "string"
        },
        {
          "name": "",
          "type": "uint256"
        }
      ],
      "payable": false,
      "stateMutability": "view",
      "type": "function"
    },
    {
      "constant": false,
      "inputs": [
        {
          "name": "bountyId",
          "type": "uint256"
        },
        {
          "name": "fulfillmentId",
          "type": "uint256"
        }
      ],
      "name": "acceptFulfillment",
      "outputs": [
        {
          "name": "",
          "type": "bool"
        }
      ],
      "payable": false,
      "stateMutability": "nonpayable",
      "type": "function"
    }
  ],
  "bytecode": "0x608060405234801561001057600080fd5b50611b5d806100206000396000f3fe60806040526004361061007b5760003560e01c8063d95834971161004e578063d9583497146102af578063dc2f87441461030c578063dcf379b01461042b578063e5e5dff11461052e5761007b565b80631e688c14146100805780634d7fc74914610152578063a3726253146101a1578063d11574f614610284575b600080fd5b34801561008c57600080fd5b50610150600480360360408110156100a357600080fd5b8101908080359060200190929190803590602001906401000000008111156100ca57600080fd5b8201836020820111156100dc57600080fd5b803590602001918460018302840111640100000000831117156100fe57600080fd5b91908080601f016020809104026020016040519081016040528093929190818152602001838380828437600081840152601f19601f82011690508083019250505050505050919291929050505061055c565b005b34801561015e57600080fd5b5061018b6004803603602081101561017557600080fd5b8101908080359060200190929190505050610b32565b6040518082815260200191505060405180910390f35b61026e600480360360408110156101b757600080fd5b81019080803590602001906401000000008111156101d457600080fd5b8201836020820111156101e657600080fd5b8035906020019184600183028401116401000000008311171561020857600080fd5b91908080601f016020809104026020016040519081016040528093929190818152602001838380828437600081840152601f19601f820116905080830192505050505050509192919290803567ffffffffffffffff169060200190929190505050610b52565b6040518082815260200191505060405180910390f35b34801561029057600080fd5b50610299610eb7565b6040518082815260200191505060405180910390f35b3480156102bb57600080fd5b506102f2600480360360408110156102d257600080fd5b810190808035906020019092919080359060200190929190505050610ec3565b604051808215151515815260200191505060405180910390f35b34801561031857600080fd5b506103456004803603602081101561032f57600080fd5b8101908080359060200190929190505050611398565b604051808973ffffffffffffffffffffffffffffffffffffffff1673ffffffffffffffffffffffffffffffffffffffff1681526020018881526020018060200187600281111561039157fe5b60ff168152602001868152602001858152602001848152602001838152602001828103825288818151815260200191508051906020019080838360005b838110156103e95780820151818401526020810190506103ce565b50505050905090810190601f1680156104165780820380516001836020036101000a031916815260200191505b50995050505050505050505060405180910390f35b34801561043757600080fd5b5061046e6004803603604081101561044e57600080fd5b8101908080359060200190929190803590602001909291905050506114b2565b60405180851515151581526020018473ffffffffffffffffffffffffffffffffffffffff1673ffffffffffffffffffffffffffffffffffffffff16815260200180602001838152602001828103825284818151815260200191508051906020019080838360005b838110156104f05780820151818401526020810190506104d5565b50505050905090810190601f16801561051d5780820380516001836020036101000a031916815260200191505b509550505050505060405180910390f35b61055a6004803603602081101561054457600080fd5b8101908080359060200190929190505050611643565b005b8160008054905081106105d7576040517f08c379a00000000000000000000000000000000000000000000000000000000081526004018080602001828103825260158152602001807f426f756e747920646f6573206e6f74206578697374000000000000000000000081525060200191505060405180910390fd5b826105e0611924565b600082815481106105ed57fe5b9060005260206000209060080201604051806101000160405290816000820160009054906101000a900473ffffffffffffffffffffffffffffffffffffffff1673ffffffffffffffffffffffffffffffffffffffff1673ffffffffffffffffffffffffffffffffffffffff16815260200160018201548152602001600282018054600181600116156101000203166002900480601f0160208091040260200160405190810160405280929190818152602001828054600181600116156101000203166002900480156107005780601f106106d557610100808354040283529160200191610700565b820191906000526020600020905b8154815290600101906020018083116106e357829003601f168201915b505050505081526020016003820160009054906101000a900460ff16600281111561072757fe5b600281111561073257fe5b815260200160048201548152602001600582015481526020016006820154815260200160078201548152505090503373ffffffffffffffffffffffffffffffffffffffff16816000015173ffffffffffffffffffffffffffffffffffffffff1614156107e9576040517f08c379a0000000000000000000000000000000000000000000000000000000008152600401808060200182810382526036815260200180611afc6036913960400191505060405180910390fd5b8460008060028111156107f857fe5b6000838154811061080557fe5b906000526020600020906008020160030160009054906101000a900460ff16600281111561082f57fe5b14610885576040517f08c379a0000000000000000000000000000000000000000000000000000000008152600401808060200182810382526033815260200180611a9b6033913960400191505060405180910390fd5b86426000828154811061089457fe5b90600052602060002090600802016001015411610919576040517f08c379a00000000000000000000000000000000000000000000000000000000081526004018080602001828103825260138152602001807f446561646c696e6520686173207061737365640000000000000000000000000081525060200191505060405180910390fd5b6001600089815260200190815260200160002060405180608001604052806000151581526020013373ffffffffffffffffffffffffffffffffffffffff168152602001898152602001428152509080600181540180825580915050906001820390600052602060002090600302016000909192909190915060008201518160000160006101000a81548160ff02191690831515021790555060208201518160000160016101000a81548173ffffffffffffffffffffffffffffffffffffffff021916908373ffffffffffffffffffffffffffffffffffffffff1602179055506040820151816001019080519060200190610a1492919061198a565b5060608201518160020155505050600060018060008b8152602001908152602001600020805490500390507ff40f720e2e8989068761a1d43ed3d02dc4b7ed0f1fc454779543372df355744e8982338b42604051808681526020018581526020018473ffffffffffffffffffffffffffffffffffffffff1673ffffffffffffffffffffffffffffffffffffffff16815260200180602001838152602001828103825284818151815260200191508051906020019080838360005b83811015610ae9578082015181840152602081019050610ace565b50505050905090810190601f168015610b165780820380516001836020036101000a031916815260200191505b50965050505050505060405180910390a1505050505050505050565b600060016000838152602001908152602001600020805490509050919050565b6000803411610bc9576040517f08c379a000000000000000000000000000000000000000000000000000000000815260040180806020018281038252601d8152602001807f4d616b65207765692076616c75652067726561746572207468616e203000000081525060200191505060405180910390fd5b8167ffffffffffffffff16428111610c49576040517f08c379a000000000000000000000000000000000000000000000000000000000815260040180806020018281038252601e8152602001807f4d616b6520646561646c696e652067726561746572207468616e206e6f77000081525060200191505060405180910390fd5b610c51611924565b6040518061010001604052803373ffffffffffffffffffffffffffffffffffffffff1681526020018567ffffffffffffffff16815260200186815260200160006002811115610c9c57fe5b81526020013481526020016000815260200160008152602001600081525090506000819080600181540180825580915050906001820390600052602060002090600802016000909192909190915060008201518160000160006101000a81548173ffffffffffffffffffffffffffffffffffffffff021916908373ffffffffffffffffffffffffffffffffffffffff160217905550602082015181600101556040820151816002019080519060200190610d5792919061198a565b5060608201518160030160006101000a81548160ff02191690836002811115610d7c57fe5b02179055506080820151816004015560a0820151816005015560c0820151816006015560e08201518160070155505050600060016000805490500390507fbf6dd0ab42ebc68bc3830b63cc52f2702817bb5277cc22ab241ccdd6e89578dc8133878934604051808681526020018573ffffffffffffffffffffffffffffffffffffffff1673ffffffffffffffffffffffffffffffffffffffff1681526020018467ffffffffffffffff16815260200180602001838152602001828103825284818151815260200191508051906020019080838360005b83811015610e6d578082015181840152602081019050610e52565b50505050905090810190601f168015610e9a5780820380516001836020036101000a031916815260200191505b50965050505050505060405180910390a180935050505092915050565b60008080549050905090565b6000826000805490508110610f40576040517f08c379a00000000000000000000000000000000000000000000000000000000081526004018080602001828103825260158152602001807f426f756e747920646f6573206e6f74206578697374000000000000000000000081525060200191505060405180910390fd5b838360016000838152602001908152602001600020805490508110610fb0576040517f08c379a000000000000000000000000000000000000000000000000000000000815260040180806020018281038252602e815260200180611ace602e913960400191505060405180910390fd5b853373ffffffffffffffffffffffffffffffffffffffff1660008281548110610fd557fe5b906000526020600020906008020160000160009054906101000a900473ffffffffffffffffffffffffffffffffffffffff1673ffffffffffffffffffffffffffffffffffffffff1614611073576040517f08c379a000000000000000000000000000000000000000000000000000000000815260040180806020018281038252602b815260200180611a70602b913960400191505060405180910390fd5b86600080600281111561108257fe5b6000838154811061108f57fe5b906000526020600020906008020160030160009054906101000a900460ff1660028111156110b957fe5b1461110f576040517f08c379a0000000000000000000000000000000000000000000000000000000008152600401808060200182810382526033815260200180611a9b6033913960400191505060405180910390fd5b88886000151560016000848152602001908152602001600020828154811061113357fe5b906000526020600020906003020160000160009054906101000a900460ff161515146111c7576040517f08c379a000000000000000000000000000000000000000000000000000000000815260040180806020018281038252601f8152602001807f46756c66696c6c6d656e7420697320616c72656164792061636365707465640081525060200191505060405180910390fd5b6000600160008d81526020019081526020016000208b815481106111e757fe5b9060005260206000209060030201905060018160000160006101000a81548160ff0219169083151502179055506000808d8154811061122257fe5b9060005260206000209060080201905060018160030160006101000a81548160ff0219169083600281111561125357fe5b02179055508b81600501819055504281600601819055508160000160019054906101000a900473ffffffffffffffffffffffffffffffffffffffff1673ffffffffffffffffffffffffffffffffffffffff166108fc82600401549081150290604051600060405180830381858888f193505050501580156112d8573d6000803e3d6000fd5b507fa1e9afefb80bc7b29979eda28c61b3e69f322b41a5d8eab81321601a5b9aaebf8d8d8460000160019054906101000a900473ffffffffffffffffffffffffffffffffffffffff1684600601548560040154604051808681526020018581526020018473ffffffffffffffffffffffffffffffffffffffff1673ffffffffffffffffffffffffffffffffffffffff1681526020018381526020018281526020019550505050505060405180910390a15050505050505050505092915050565b600081815481106113a557fe5b90600052602060002090600802016000915090508060000160009054906101000a900473ffffffffffffffffffffffffffffffffffffffff1690806001015490806002018054600181600116156101000203166002900480601f01602080910402602001604051908101604052809291908181526020018280546001816001161561010002031660029004801561147d5780601f106114525761010080835404028352916020019161147d565b820191906000526020600020905b81548152906001019060200180831161146057829003601f168201915b5050505050908060030160009054906101000a900460ff16908060040154908060050154908060060154908060070154905088565b600080606060006114c1611a0a565b6001600088815260200190815260200160002086815481106114df57fe5b90600052602060002090600302016040518060800160405290816000820160009054906101000a900460ff161515151581526020016000820160019054906101000a900473ffffffffffffffffffffffffffffffffffffffff1673ffffffffffffffffffffffffffffffffffffffff1673ffffffffffffffffffffffffffffffffffffffff168152602001600182018054600181600116156101000203166002900480601f0160208091040260200160405190810160405280929190818152602001828054600181600116156101000203166002900480156116025780601f106115d757610100808354040283529160200191611602565b820191906000526020600020905b8154815290600101906020018083116115e557829003601f168201915b505050505081526020016002820154815250509050806000015181602001518260400151836060015182925081915094509450945094505092959194509250565b8060008054905081106116be576040517f08c379a00000000000000000000000000000000000000000000000000000000081526004018080602001828103825260158152602001807f426f756e747920646f6573206e6f74206578697374000000000000000000000081525060200191505060405180910390fd5b813373ffffffffffffffffffffffffffffffffffffffff16600082815481106116e357fe5b906000526020600020906008020160000160009054906101000a900473ffffffffffffffffffffffffffffffffffffffff1673ffffffffffffffffffffffffffffffffffffffff1614611781576040517f08c379a000000000000000000000000000000000000000000000000000000000815260040180806020018281038252602b815260200180611a70602b913960400191505060405180910390fd5b82600080600281111561179057fe5b6000838154811061179d57fe5b906000526020600020906008020160030160009054906101000a900460ff1660028111156117c757fe5b1461181d576040517f08c379a0000000000000000000000000000000000000000000000000000000008152600401808060200182810382526033815260200180611a9b6033913960400191505060405180910390fd5b600080868154811061182b57fe5b9060005260206000209060080201905060028160030160006101000a81548160ff0219169083600281111561185c57fe5b02179055504281600701819055508060000160009054906101000a900473ffffffffffffffffffffffffffffffffffffffff1673ffffffffffffffffffffffffffffffffffffffff166108fc82600401549081150290604051600060405180830381858888f193505050501580156118d8573d6000803e3d6000fd5b507f4fe522caf12f0adba1b0532093b34bea60fc859fb838ae075b44bcd15fcde9ff868260070154604051808381526020018281526020019250505060405180910390a1505050505050565b604051806101000160405280600073ffffffffffffffffffffffffffffffffffffffff16815260200160008152602001606081526020016000600281111561196857fe5b8152602001600081526020016000815260200160008152602001600081525090565b828054600181600116156101000203166002900490600052602060002090601f016020900481019282601f106119cb57805160ff19168380011785556119f9565b828001600101855582156119f9579182015b828111156119f85782518255916020019190600101906119dd565b5b509050611a069190611a4a565b5090565b6040518060800160405280600015158152602001600073ffffffffffffffffffffffffffffffffffffffff16815260200160608152602001600081525090565b611a6c91905b80821115611a68576000816000905550600101611a50565b5090565b9056fe4f6e6c7920626f756e7479206973737565722063616e2061636365707420612066756c66696c6c6d656e74426f756e747920737461747573206973206e6f74207468652073616d652061732074686520646573697265642073746174757346756c66696c6c6d656e7420666f7220676976656e20626f756e747920696420646f6573206e6f7420657869737446756c66696c6c6d656e74206973737565722063616e6e6f74206265207468652073616d6520617320426f756e747920497373756572a165627a7a723058208c32316580f097e9286d61eaab3f0ed6cc453440efaf5c1ffe5a950ce05d900b0029",
  "source": "pragma solidity ^0.5.0;\n\n// Contract Address: 0x53840c08F92F935C9C10033837A82eE81eBD088f\n\ncontract Bounties {\n    enum BountyStatus { CREATED, ACCEPTED, CANCELLED }\n    Bounty[] public bounties;\n    mapping(uint => Fulfillment[]) fulfillments;\n\n    struct Bounty {\n        address payable issuer;\n        uint deadline;\n        string data;\n        BountyStatus status;\n        uint reward;\n        uint acceptedFulfillmentId;\n        uint fulfilledOn;\n        uint cancelledOn;\n    }\n\n    struct Fulfillment {\n        bool accepted;\n        address payable fulfiller;\n        string data;\n        uint date;\n    }\n\n    constructor() public {}\n\n    function issueBounty(string memory _data, uint64 _deadline)\n        public\n        payable\n        hasValue()\n        validateDeadline(_deadline)\n        returns (uint)\n    {\n        Bounty memory newBounty = Bounty({\n            issuer: msg.sender,\n            deadline: _deadline,\n            data: _data,\n            reward: msg.value,\n            status: BountyStatus.CREATED,\n            acceptedFulfillmentId: 0,\n            fulfilledOn: 0,\n            cancelledOn: 0\n        });\n\n\n        bounties.push(newBounty);\n\n        uint bountyId = bounties.length - 1;\n\n        emit BountyIssued({ bountyId: bountyId, issuer: msg.sender, deadline: _deadline, data: _data, reward: msg.value });\n\n        return (bountyId);\n    }\n\n    function fulfillBounty(uint bountyId, string memory _data)\n        public\n        bountyExists(bountyId)\n        notIssuer(bountyId)\n        hasStatus(bountyId, BountyStatus.CREATED)\n        isBeforeDeadline(bountyId)\n    {\n        fulfillments[bountyId].push(Fulfillment({\n            accepted: false,\n            fulfiller: msg.sender,\n            data: _data,\n            date: now\n        }));\n\n        uint fulfillmentId = fulfillments[bountyId].length-1;\n\n        emit BountyFulfilled({ bountyId: bountyId, fulfillmentId: fulfillmentId, fulfiller: msg.sender, data: _data, date: now });\n    }\n\n    function cancelBounty(uint bountyId)\n        public\n        payable\n        bountyExists(bountyId)\n        isBountyIssuer(bountyId)\n        hasStatus(bountyId, BountyStatus.CREATED)\n    {\n        Bounty storage bounty = bounties[bountyId];\n        bounty.status = BountyStatus.CANCELLED;\n        bounty.cancelledOn = now;\n        \n        // Transfer funds back to bounty issuer\n        bounty.issuer.transfer(bounty.reward);\n        \n        emit BountyCancelled(bountyId, bounty.cancelledOn);\n    }\n        \n\n    function getNumberOBounties() public view returns (uint) {\n        return bounties.length;\n    }\n\n    function getNumberOfBountyFulfillments(uint bountyId) public view returns (uint) {\n        return fulfillments[bountyId].length;\n    }\n\n    function showBountyFulfillment(uint bountyId, uint fulfillmentId)\n        public\n        view\n        returns (bool, address, string memory, uint)\n    {\n        Fulfillment memory fulfillment = fulfillments[bountyId][fulfillmentId];\n        return (fulfillment.accepted, fulfillment.fulfiller, fulfillment.data, fulfillment.date );\n    }\n\n    function acceptFulfillment(uint bountyId, uint fulfillmentId)\n        public\n        bountyExists(bountyId)\n        fulfillmentExists(bountyId, fulfillmentId)\n        isBountyIssuer(bountyId)\n        hasStatus(bountyId, BountyStatus.CREATED)\n        fulfillmentNotYetAccepted(bountyId, fulfillmentId)\n        returns (bool)\n    {\n        // Change fulfillment values\n        Fulfillment storage fulfillment = fulfillments[bountyId][fulfillmentId];\n        fulfillment.accepted = true;\n\n        // Change bounty values\n        Bounty storage bounty = bounties[bountyId];\n        bounty.status = BountyStatus.ACCEPTED;\n        bounty.acceptedFulfillmentId = fulfillmentId;\n        bounty.fulfilledOn = now;\n\n        // Transfer money to fulfiller\n        fulfillment.fulfiller.transfer(bounty.reward);\n\n        emit FulfillmentAccepted(bountyId, fulfillmentId, fulfillment.fulfiller, bounty.fulfilledOn, bounty.reward);\n    }\n\n\n\n\n    // MODIFIERS\n\n    modifier validateDeadline(uint _newDeadline) {\n        require(_newDeadline > now, \"Make deadline greater than now\");\n        _;\n    }\n\n    modifier hasValue() {\n        require(msg.value > 0, \"Make wei value greater than 0\");\n        _;\n    }\n\n    modifier bountyExists(uint bountyId) {\n        require(bountyId < bounties.length, \"Bounty does not exist\");\n        _;\n    }\n\n    modifier notIssuer(uint bountyId) {\n        Bounty memory bounty = bounties[bountyId];\n        require(bounty.issuer != msg.sender, \"Fulfillment issuer cannot be the same as Bounty Issuer\");\n        _;\n    }\n\n    modifier hasStatus(uint bountyId, BountyStatus _desiredStatus) {\n        require(bounties[bountyId].status == _desiredStatus, \"Bounty status is not the same as the desired status\");\n        _;\n    }\n\n    modifier isBeforeDeadline(uint _bountyId) {\n        require(bounties[_bountyId].deadline > now, \"Deadline has passed\");\n        _;\n    }\n\n    modifier fulfillmentExists(uint _bountyId, uint _fulfillmentId) {\n        require(_fulfillmentId < fulfillments[_bountyId].length, \"Fulfillment for given bounty id does not exist\");\n        _;\n    }\n\n    modifier isBountyIssuer(uint bountyId) {\n        require(bounties[bountyId].issuer == msg.sender, \"Only bounty issuer can accept a fulfillment\");\n        _;\n    }\n\n    modifier fulfillmentNotYetAccepted(uint bountyId, uint fulfillmentId) {\n        require(fulfillments[bountyId][fulfillmentId].accepted == false, \"Fulfillment is already accepted\" );\n        _;\n    }\n\n\n\n\n    // EVENTS\n\n    event BountyIssued(uint bountyId, address issuer, uint deadline, string data, uint reward);\n    event BountyFulfilled(uint bountyId, uint fulfillmentId, address fulfiller, string data, uint date);\n    event FulfillmentAccepted(uint bountyId, uint fulfillmentId, address fulfiller, uint fulfilledOn, uint reward);\n    event BountyCancelled(uint bountyId, uint cancelledOn);\n}",
  "sourcePath": "/Users/gchasepatron/Ethereum/bounties/contracts/Bounties.sol",
  "compiler": {
    "name": "solc",
    "version": "0.5.8+commit.23d335f2.Emscripten.clang"
  },
  "schemaVersion": "3.0.16",
  "updatedAt": "2019-09-30T13:21:41.551Z",
  "devdoc": {
    "methods": {}
  },
  "userdoc": {
    "methods": {}
  }
}