{
  "contractName": "Bounties",
  "abi": [
    {
      "constant": true,
      "inputs": [
        {
          "name": "",
          "type": "uint256"
        },
        {
          "name": "",
          "type": "uint256"
        }
      ],
      "name": "fulfillments",
      "outputs": [
        {
          "name": "accepted",
          "type": "bool"
        },
        {
          "name": "fulfiller",
          "type": "address"
        },
        {
          "name": "data",
          "type": "string"
        },
        {
          "name": "date",
          "type": "uint256"
        }
      ],
      "payable": false,
      "stateMutability": "view",
      "type": "function"
    },
    {
      "constant": true,
      "inputs": [
        {
          "name": "",
          "type": "uint256"
        }
      ],
      "name": "bounties",
      "outputs": [
        {
          "name": "issuer",
          "type": "address"
        },
        {
          "name": "deadline",
          "type": "uint256"
        },
        {
          "name": "data",
          "type": "string"
        },
        {
          "name": "status",
          "type": "uint8"
        },
        {
          "name": "reward",
          "type": "uint256"
        },
        {
          "name": "acceptedFulfillmentId",
          "type": "uint256"
        },
        {
          "name": "fulfilledOn",
          "type": "uint256"
        },
        {
          "name": "cancelledOn",
          "type": "uint256"
        }
      ],
      "payable": false,
      "stateMutability": "view",
      "type": "function"
    },
    {
      "inputs": [],
      "payable": false,
      "stateMutability": "nonpayable",
      "type": "constructor"
    },
    {
      "anonymous": false,
      "inputs": [
        {
          "indexed": false,
          "name": "bountyId",
          "type": "uint256"
        },
        {
          "indexed": false,
          "name": "issuer",
          "type": "address"
        },
        {
          "indexed": false,
          "name": "deadline",
          "type": "uint256"
        },
        {
          "indexed": false,
          "name": "data",
          "type": "string"
        },
        {
          "indexed": false,
          "name": "reward",
          "type": "uint256"
        }
      ],
      "name": "BountyIssued",
      "type": "event"
    },
    {
      "anonymous": false,
      "inputs": [
        {
          "indexed": false,
          "name": "bountyId",
          "type": "uint256"
        },
        {
          "indexed": false,
          "name": "fulfillmentId",
          "type": "uint256"
        },
        {
          "indexed": false,
          "name": "fulfiller",
          "type": "address"
        },
        {
          "indexed": false,
          "name": "data",
          "type": "string"
        },
        {
          "indexed": false,
          "name": "date",
          "type": "uint256"
        }
      ],
      "name": "BountyFulfilled",
      "type": "event"
    },
    {
      "anonymous": false,
      "inputs": [
        {
          "indexed": false,
          "name": "bountyId",
          "type": "uint256"
        },
        {
          "indexed": false,
          "name": "fulfillmentId",
          "type": "uint256"
        },
        {
          "indexed": false,
          "name": "fulfiller",
          "type": "address"
        },
        {
          "indexed": false,
          "name": "fulfilledOn",
          "type": "uint256"
        },
        {
          "indexed": false,
          "name": "reward",
          "type": "uint256"
        }
      ],
      "name": "FulfillmentAccepted",
      "type": "event"
    },
    {
      "anonymous": false,
      "inputs": [
        {
          "indexed": false,
          "name": "bountyId",
          "type": "uint256"
        },
        {
          "indexed": false,
          "name": "cancelledOn",
          "type": "uint256"
        }
      ],
      "name": "BountyCancelled",
      "type": "event"
    },
    {
      "constant": false,
      "inputs": [
        {
          "name": "_data",
          "type": "string"
        },
        {
          "name": "_deadline",
          "type": "uint256"
        }
      ],
      "name": "issueBounty",
      "outputs": [
        {
          "name": "",
          "type": "uint256"
        }
      ],
      "payable": true,
      "stateMutability": "payable",
      "type": "function"
    },
    {
      "constant": false,
      "inputs": [
        {
          "name": "bountyId",
          "type": "uint256"
        },
        {
          "name": "_data",
          "type": "string"
        }
      ],
      "name": "fulfillBounty",
      "outputs": [
        {
          "name": "",
          "type": "uint256"
        }
      ],
      "payable": false,
      "stateMutability": "nonpayable",
      "type": "function"
    },
    {
      "constant": false,
      "inputs": [
        {
          "name": "bountyId",
          "type": "uint256"
        }
      ],
      "name": "cancelBounty",
      "outputs": [],
      "payable": true,
      "stateMutability": "payable",
      "type": "function"
    },
    {
      "constant": true,
      "inputs": [],
      "name": "getNumberOfBounties",
      "outputs": [
        {
          "name": "",
          "type": "uint256"
        }
      ],
      "payable": false,
      "stateMutability": "view",
      "type": "function"
    },
    {
      "constant": true,
      "inputs": [
        {
          "name": "bountyId",
          "type": "uint256"
        }
      ],
      "name": "getNumberOfBountyFulfillments",
      "outputs": [
        {
          "name": "",
          "type": "uint256"
        }
      ],
      "payable": false,
      "stateMutability": "view",
      "type": "function"
    },
    {
      "constant": true,
      "inputs": [
        {
          "name": "bountyId",
          "type": "uint256"
        }
      ],
      "name": "getBountyStatus",
      "outputs": [
        {
          "name": "",
          "type": "string"
        }
      ],
      "payable": false,
      "stateMutability": "view",
      "type": "function"
    },
    {
      "constant": true,
      "inputs": [
        {
          "name": "bountyId",
          "type": "uint256"
        },
        {
          "name": "fulfillmentId",
          "type": "uint256"
        }
      ],
      "name": "showBountyFulfillment",
      "outputs": [
        {
          "name": "",
          "type": "bool"
        },
        {
          "name": "",
          "type": "address"
        },
        {
          "name": "",
          "type": "string"
        },
        {
          "name": "",
          "type": "uint256"
        }
      ],
      "payable": false,
      "stateMutability": "view",
      "type": "function"
    },
    {
      "constant": false,
      "inputs": [
        {
          "name": "bountyId",
          "type": "uint256"
        },
        {
          "name": "fulfillmentId",
          "type": "uint256"
        }
      ],
      "name": "acceptFulfillment",
      "outputs": [
        {
          "name": "",
          "type": "bool"
        }
      ],
      "payable": false,
      "stateMutability": "nonpayable",
      "type": "function"
    }
  ],
  "bytecode": "0x608060405234801561001057600080fd5b506120df806100206000396000f3fe6080604052600436106100915760003560e01c8063d958349711610059578063d9583497146103d2578063dc2f87441461042f578063dcf379b01461054e578063e5e5dff114610651578063e74205f61461067f57610091565b80631e688c14146100965780634d7fc7491461017c57806372cb6136146101cb5780638836f3ef146102ce5780638e6a3240146102f9575b600080fd5b3480156100a257600080fd5b50610166600480360360408110156100b957600080fd5b8101908080359060200190929190803590602001906401000000008111156100e057600080fd5b8201836020820111156100f257600080fd5b8035906020019184600183028401116401000000008311171561011457600080fd5b91908080601f016020809104026020016040519081016040528093929190818152602001838380828437600081840152601f19601f820116905080830192505050505050509192919290505050610733565b6040518082815260200191505060405180910390f35b34801561018857600080fd5b506101b56004803603602081101561019f57600080fd5b8101908080359060200190929190505050610d10565b6040518082815260200191505060405180910390f35b3480156101d757600080fd5b5061020e600480360360408110156101ee57600080fd5b810190808035906020019092919080359060200190929190505050610d30565b60405180851515151581526020018473ffffffffffffffffffffffffffffffffffffffff1673ffffffffffffffffffffffffffffffffffffffff16815260200180602001838152602001828103825284818151815260200191508051906020019080838360005b83811015610290578082015181840152602081019050610275565b50505050905090810190601f1680156102bd5780820380516001836020036101000a031916815260200191505b509550505050505060405180910390f35b3480156102da57600080fd5b506102e3610e3f565b6040518082815260200191505060405180910390f35b6103bc6004803603604081101561030f57600080fd5b810190808035906020019064010000000081111561032c57600080fd5b82018360208201111561033e57600080fd5b8035906020019184600183028401116401000000008311171561036057600080fd5b91908080601f016020809104026020016040519081016040528093929190818152602001838380828437600081840152601f19601f82011690508083019250505050505050919291929080359060200190929190505050610e4b565b6040518082815260200191505060405180910390f35b3480156103de57600080fd5b50610415600480360360408110156103f557600080fd5b810190808035906020019092919080359060200190929190505050611192565b604051808215151515815260200191505060405180910390f35b34801561043b57600080fd5b506104686004803603602081101561045257600080fd5b8101908080359060200190929190505050611667565b604051808973ffffffffffffffffffffffffffffffffffffffff1673ffffffffffffffffffffffffffffffffffffffff168152602001888152602001806020018760028111156104b457fe5b60ff168152602001868152602001858152602001848152602001838152602001828103825288818151815260200191508051906020019080838360005b8381101561050c5780820151818401526020810190506104f1565b50505050905090810190601f1680156105395780820380516001836020036101000a031916815260200191505b50995050505050505050505060405180910390f35b34801561055a57600080fd5b506105916004803603604081101561057157600080fd5b810190808035906020019092919080359060200190929190505050611781565b60405180851515151581526020018473ffffffffffffffffffffffffffffffffffffffff1673ffffffffffffffffffffffffffffffffffffffff16815260200180602001838152602001828103825284818151815260200191508051906020019080838360005b838110156106135780820151818401526020810190506105f8565b50505050905090810190601f1680156106405780820380516001836020036101000a031916815260200191505b509550505050505060405180910390f35b61067d6004803603602081101561066757600080fd5b8101908080359060200190929190505050611912565b005b34801561068b57600080fd5b506106b8600480360360208110156106a257600080fd5b8101908080359060200190929190505050611bf3565b6040518080602001828103825283818151815260200191508051906020019080838360005b838110156106f85780820151818401526020810190506106dd565b50505050905090810190601f1680156107255780820380516001836020036101000a031916815260200191505b509250505060405180910390f35b60008260008054905081106107b0576040517f08c379a00000000000000000000000000000000000000000000000000000000081526004018080602001828103825260158152602001807f426f756e747920646f6573206e6f74206578697374000000000000000000000081525060200191505060405180910390fd5b836107b9611ea6565b600082815481106107c657fe5b9060005260206000209060080201604051806101000160405290816000820160009054906101000a900473ffffffffffffffffffffffffffffffffffffffff1673ffffffffffffffffffffffffffffffffffffffff1673ffffffffffffffffffffffffffffffffffffffff16815260200160018201548152602001600282018054600181600116156101000203166002900480601f0160208091040260200160405190810160405280929190818152602001828054600181600116156101000203166002900480156108d95780601f106108ae576101008083540402835291602001916108d9565b820191906000526020600020905b8154815290600101906020018083116108bc57829003601f168201915b505050505081526020016003820160009054906101000a900460ff16600281111561090057fe5b600281111561090b57fe5b815260200160048201548152602001600582015481526020016006820154815260200160078201548152505090503373ffffffffffffffffffffffffffffffffffffffff16816000015173ffffffffffffffffffffffffffffffffffffffff1614156109c2576040517f08c379a000000000000000000000000000000000000000000000000000000000815260040180806020018281038252603681526020018061207e6036913960400191505060405180910390fd5b8560008060028111156109d157fe5b600083815481106109de57fe5b906000526020600020906008020160030160009054906101000a900460ff166002811115610a0857fe5b14610a5e576040517f08c379a000000000000000000000000000000000000000000000000000000000815260040180806020018281038252603381526020018061201d6033913960400191505060405180910390fd5b874260008281548110610a6d57fe5b90600052602060002090600802016001015411610af2576040517f08c379a00000000000000000000000000000000000000000000000000000000081526004018080602001828103825260138152602001807f446561646c696e6520686173207061737365640000000000000000000000000081525060200191505060405180910390fd5b600160008a815260200190815260200160002060405180608001604052806000151581526020013373ffffffffffffffffffffffffffffffffffffffff1681526020018a8152602001428152509080600181540180825580915050906001820390600052602060002090600302016000909192909190915060008201518160000160006101000a81548160ff02191690831515021790555060208201518160000160016101000a81548173ffffffffffffffffffffffffffffffffffffffff021916908373ffffffffffffffffffffffffffffffffffffffff1602179055506040820151816001019080519060200190610bed929190611f0c565b5060608201518160020155505050600060018060008c8152602001908152602001600020805490500390507ff40f720e2e8989068761a1d43ed3d02dc4b7ed0f1fc454779543372df355744e8a82338c42604051808681526020018581526020018473ffffffffffffffffffffffffffffffffffffffff1673ffffffffffffffffffffffffffffffffffffffff16815260200180602001838152602001828103825284818151815260200191508051906020019080838360005b83811015610cc2578082015181840152602081019050610ca7565b50505050905090810190601f168015610cef5780820380516001836020036101000a031916815260200191505b50965050505050505060405180910390a18097505050505050505092915050565b600060016000838152602001908152602001600020805490509050919050565b60016020528160005260406000208181548110610d4957fe5b9060005260206000209060030201600091509150508060000160009054906101000a900460ff16908060000160019054906101000a900473ffffffffffffffffffffffffffffffffffffffff1690806001018054600181600116156101000203166002900480601f016020809104026020016040519081016040528092919081815260200182805460018160011615610100020316600290048015610e2f5780601f10610e0457610100808354040283529160200191610e2f565b820191906000526020600020905b815481529060010190602001808311610e1257829003601f168201915b5050505050908060020154905084565b60008080549050905090565b6000803411610ec2576040517f08c379a000000000000000000000000000000000000000000000000000000000815260040180806020018281038252601d8152602001807f4d616b65207765692076616c75652067726561746572207468616e203000000081525060200191505060405180910390fd5b81428111610f38576040517f08c379a000000000000000000000000000000000000000000000000000000000815260040180806020018281038252601e8152602001807f4d616b6520646561646c696e652067726561746572207468616e206e6f77000081525060200191505060405180910390fd5b610f40611ea6565b6040518061010001604052803373ffffffffffffffffffffffffffffffffffffffff16815260200185815260200186815260200160006002811115610f8157fe5b81526020013481526020016000815260200160008152602001600081525090506000819080600181540180825580915050906001820390600052602060002090600802016000909192909190915060008201518160000160006101000a81548173ffffffffffffffffffffffffffffffffffffffff021916908373ffffffffffffffffffffffffffffffffffffffff16021790555060208201518160010155604082015181600201908051906020019061103c929190611f0c565b5060608201518160030160006101000a81548160ff0219169083600281111561106157fe5b02179055506080820151816004015560a0820151816005015560c0820151816006015560e08201518160070155505050600060016000805490500390507fbf6dd0ab42ebc68bc3830b63cc52f2702817bb5277cc22ab241ccdd6e89578dc8133878934604051808681526020018573ffffffffffffffffffffffffffffffffffffffff1673ffffffffffffffffffffffffffffffffffffffff16815260200184815260200180602001838152602001828103825284818151815260200191508051906020019080838360005b8381101561114857808201518184015260208101905061112d565b50505050905090810190601f1680156111755780820380516001836020036101000a031916815260200191505b50965050505050505060405180910390a180935050505092915050565b600082600080549050811061120f576040517f08c379a00000000000000000000000000000000000000000000000000000000081526004018080602001828103825260158152602001807f426f756e747920646f6573206e6f74206578697374000000000000000000000081525060200191505060405180910390fd5b83836001600083815260200190815260200160002080549050811061127f576040517f08c379a000000000000000000000000000000000000000000000000000000000815260040180806020018281038252602e815260200180612050602e913960400191505060405180910390fd5b853373ffffffffffffffffffffffffffffffffffffffff16600082815481106112a457fe5b906000526020600020906008020160000160009054906101000a900473ffffffffffffffffffffffffffffffffffffffff1673ffffffffffffffffffffffffffffffffffffffff1614611342576040517f08c379a000000000000000000000000000000000000000000000000000000000815260040180806020018281038252602b815260200180611ff2602b913960400191505060405180910390fd5b86600080600281111561135157fe5b6000838154811061135e57fe5b906000526020600020906008020160030160009054906101000a900460ff16600281111561138857fe5b146113de576040517f08c379a000000000000000000000000000000000000000000000000000000000815260040180806020018281038252603381526020018061201d6033913960400191505060405180910390fd5b88886000151560016000848152602001908152602001600020828154811061140257fe5b906000526020600020906003020160000160009054906101000a900460ff16151514611496576040517f08c379a000000000000000000000000000000000000000000000000000000000815260040180806020018281038252601f8152602001807f46756c66696c6c6d656e7420697320616c72656164792061636365707465640081525060200191505060405180910390fd5b6000600160008d81526020019081526020016000208b815481106114b657fe5b9060005260206000209060030201905060018160000160006101000a81548160ff0219169083151502179055506000808d815481106114f157fe5b9060005260206000209060080201905060018160030160006101000a81548160ff0219169083600281111561152257fe5b02179055508b81600501819055504281600601819055508160000160019054906101000a900473ffffffffffffffffffffffffffffffffffffffff1673ffffffffffffffffffffffffffffffffffffffff166108fc82600401549081150290604051600060405180830381858888f193505050501580156115a7573d6000803e3d6000fd5b507fa1e9afefb80bc7b29979eda28c61b3e69f322b41a5d8eab81321601a5b9aaebf8d8d8460000160019054906101000a900473ffffffffffffffffffffffffffffffffffffffff1684600601548560040154604051808681526020018581526020018473ffffffffffffffffffffffffffffffffffffffff1673ffffffffffffffffffffffffffffffffffffffff1681526020018381526020018281526020019550505050505060405180910390a15050505050505050505092915050565b6000818154811061167457fe5b90600052602060002090600802016000915090508060000160009054906101000a900473ffffffffffffffffffffffffffffffffffffffff1690806001015490806002018054600181600116156101000203166002900480601f01602080910402602001604051908101604052809291908181526020018280546001816001161561010002031660029004801561174c5780601f106117215761010080835404028352916020019161174c565b820191906000526020600020905b81548152906001019060200180831161172f57829003601f168201915b5050505050908060030160009054906101000a900460ff16908060040154908060050154908060060154908060070154905088565b60008060606000611790611f8c565b6001600088815260200190815260200160002086815481106117ae57fe5b90600052602060002090600302016040518060800160405290816000820160009054906101000a900460ff161515151581526020016000820160019054906101000a900473ffffffffffffffffffffffffffffffffffffffff1673ffffffffffffffffffffffffffffffffffffffff1673ffffffffffffffffffffffffffffffffffffffff168152602001600182018054600181600116156101000203166002900480601f0160208091040260200160405190810160405280929190818152602001828054600181600116156101000203166002900480156118d15780601f106118a6576101008083540402835291602001916118d1565b820191906000526020600020905b8154815290600101906020018083116118b457829003601f168201915b505050505081526020016002820154815250509050806000015181602001518260400151836060015182925081915094509450945094505092959194509250565b80600080549050811061198d576040517f08c379a00000000000000000000000000000000000000000000000000000000081526004018080602001828103825260158152602001807f426f756e747920646f6573206e6f74206578697374000000000000000000000081525060200191505060405180910390fd5b813373ffffffffffffffffffffffffffffffffffffffff16600082815481106119b257fe5b906000526020600020906008020160000160009054906101000a900473ffffffffffffffffffffffffffffffffffffffff1673ffffffffffffffffffffffffffffffffffffffff1614611a50576040517f08c379a000000000000000000000000000000000000000000000000000000000815260040180806020018281038252602b815260200180611ff2602b913960400191505060405180910390fd5b826000806002811115611a5f57fe5b60008381548110611a6c57fe5b906000526020600020906008020160030160009054906101000a900460ff166002811115611a9657fe5b14611aec576040517f08c379a000000000000000000000000000000000000000000000000000000000815260040180806020018281038252603381526020018061201d6033913960400191505060405180910390fd5b6000808681548110611afa57fe5b9060005260206000209060080201905060028160030160006101000a81548160ff02191690836002811115611b2b57fe5b02179055504281600701819055508060000160009054906101000a900473ffffffffffffffffffffffffffffffffffffffff1673ffffffffffffffffffffffffffffffffffffffff166108fc82600401549081150290604051600060405180830381858888f19350505050158015611ba7573d6000803e3d6000fd5b507f4fe522caf12f0adba1b0532093b34bea60fc859fb838ae075b44bcd15fcde9ff868260070154604051808381526020018281526020019250505060405180910390a1505050505050565b6060611bfd611ea6565b60008381548110611c0a57fe5b9060005260206000209060080201604051806101000160405290816000820160009054906101000a900473ffffffffffffffffffffffffffffffffffffffff1673ffffffffffffffffffffffffffffffffffffffff1673ffffffffffffffffffffffffffffffffffffffff16815260200160018201548152602001600282018054600181600116156101000203166002900480601f016020809104026020016040519081016040528092919081815260200182805460018160011615610100020316600290048015611d1d5780601f10611cf257610100808354040283529160200191611d1d565b820191906000526020600020905b815481529060010190602001808311611d0057829003601f168201915b505050505081526020016003820160009054906101000a900460ff166002811115611d4457fe5b6002811115611d4f57fe5b8152602001600482015481526020016005820154815260200160068201548152602001600782015481525050905060006002811115611d8a57fe5b81606001516002811115611d9a57fe5b1415611dde576040518060400160405280600781526020017f4352454154454400000000000000000000000000000000000000000000000000815250915050611ea1565b60016002811115611deb57fe5b81606001516002811115611dfb57fe5b1415611e3f576040518060400160405280600881526020017f4143434550544544000000000000000000000000000000000000000000000000815250915050611ea1565b600280811115611e4b57fe5b81606001516002811115611e5b57fe5b1415611e9f576040518060400160405280600981526020017f43414e43454c4c45440000000000000000000000000000000000000000000000815250915050611ea1565b505b919050565b604051806101000160405280600073ffffffffffffffffffffffffffffffffffffffff168152602001600081526020016060815260200160006002811115611eea57fe5b8152602001600081526020016000815260200160008152602001600081525090565b828054600181600116156101000203166002900490600052602060002090601f016020900481019282601f10611f4d57805160ff1916838001178555611f7b565b82800160010185558215611f7b579182015b82811115611f7a578251825591602001919060010190611f5f565b5b509050611f889190611fcc565b5090565b6040518060800160405280600015158152602001600073ffffffffffffffffffffffffffffffffffffffff16815260200160608152602001600081525090565b611fee91905b80821115611fea576000816000905550600101611fd2565b5090565b9056fe4f6e6c7920626f756e7479206973737565722063616e2061636365707420612066756c66696c6c6d656e74426f756e747920737461747573206973206e6f74207468652073616d652061732074686520646573697265642073746174757346756c66696c6c6d656e7420666f7220676976656e20626f756e747920696420646f6573206e6f7420657869737446756c66696c6c6d656e74206973737565722063616e6e6f74206265207468652073616d6520617320426f756e747920497373756572a165627a7a723058209cb810fb2808e38b4c76a87c3aedc7a7860c0c91aedca173ea29bc7cd2ba6d120029",
  "source": "pragma solidity ^0.5.0;\n\n// Contract Address: 0x53840c08F92F935C9C10033837A82eE81eBD088f\n\ncontract Bounties {\n    enum BountyStatus { CREATED, ACCEPTED, CANCELLED }\n    Bounty[] public bounties;\n    mapping(uint => Fulfillment[]) public fulfillments;\n\n    struct Bounty {\n        address payable issuer;\n        uint deadline;\n        string data;\n        BountyStatus status;\n        uint reward;\n        uint acceptedFulfillmentId;\n        uint fulfilledOn;\n        uint cancelledOn;\n    }\n\n    struct Fulfillment {\n        bool accepted;\n        address payable fulfiller;\n        string data;\n        uint date;\n    }\n\n    constructor() public {}\n\n    function issueBounty(string memory _data, uint _deadline)\n        public\n        payable\n        hasValue()\n        validateDeadline(_deadline)\n        returns (uint)\n    {\n        Bounty memory newBounty = Bounty({\n            issuer: msg.sender,\n            deadline: _deadline,\n            data: _data,\n            reward: msg.value,\n            status: BountyStatus.CREATED,\n            acceptedFulfillmentId: 0,\n            fulfilledOn: 0,\n            cancelledOn: 0\n        });\n\n\n        bounties.push(newBounty);\n\n        uint bountyId = bounties.length - 1;\n\n        emit BountyIssued({ bountyId: bountyId, issuer: msg.sender, deadline: _deadline, data: _data, reward: msg.value });\n\n        return (bountyId);\n    }\n\n    function fulfillBounty(uint bountyId, string memory _data)\n        public\n        bountyExists(bountyId)\n        notIssuer(bountyId)\n        hasStatus(bountyId, BountyStatus.CREATED)\n        isBeforeDeadline(bountyId)\n        returns (uint)\n    {\n        fulfillments[bountyId].push(Fulfillment({\n            accepted: false,\n            fulfiller: msg.sender,\n            data: _data,\n            date: now\n        }));\n\n        uint fulfillmentId = fulfillments[bountyId].length-1;\n\n        emit BountyFulfilled({ bountyId: bountyId, fulfillmentId: fulfillmentId, fulfiller: msg.sender, data: _data, date: now });\n\n        return (fulfillmentId);\n    }\n\n    function cancelBounty(uint bountyId)\n        public\n        payable\n        bountyExists(bountyId)\n        isBountyIssuer(bountyId)\n        hasStatus(bountyId, BountyStatus.CREATED)\n    {\n        Bounty storage bounty = bounties[bountyId];\n        bounty.status = BountyStatus.CANCELLED;\n        bounty.cancelledOn = now;\n        \n        // Transfer funds back to bounty issuer\n        bounty.issuer.transfer(bounty.reward);\n        \n        emit BountyCancelled(bountyId, bounty.cancelledOn);\n    }\n        \n\n    function getNumberOfBounties() public view returns (uint) {\n        return bounties.length;\n    }\n\n    function getNumberOfBountyFulfillments(uint bountyId) public view returns (uint) {\n        return fulfillments[bountyId].length;\n    }\n\n    function getBountyStatus(uint bountyId) public view returns (string memory) {\n        Bounty memory bounty = bounties[bountyId];\n\n        if (bounty.status == BountyStatus.CREATED) return \"CREATED\";\n        if (bounty.status == BountyStatus.ACCEPTED) return \"ACCEPTED\";\n        if (bounty.status == BountyStatus.CANCELLED) return \"CANCELLED\";\n    }\n\n    function showBountyFulfillment(uint bountyId, uint fulfillmentId)\n        public\n        view\n        returns (bool, address, string memory, uint)\n    {\n        Fulfillment memory fulfillment = fulfillments[bountyId][fulfillmentId];\n        return (fulfillment.accepted, fulfillment.fulfiller, fulfillment.data, fulfillment.date );\n    }\n\n    function acceptFulfillment(uint bountyId, uint fulfillmentId)\n        public\n        bountyExists(bountyId)\n        fulfillmentExists(bountyId, fulfillmentId)\n        isBountyIssuer(bountyId)\n        hasStatus(bountyId, BountyStatus.CREATED)\n        fulfillmentNotYetAccepted(bountyId, fulfillmentId)\n        returns (bool)\n    {\n        // Change fulfillment values\n        Fulfillment storage fulfillment = fulfillments[bountyId][fulfillmentId];\n        fulfillment.accepted = true;\n\n        // Change bounty values\n        Bounty storage bounty = bounties[bountyId];\n        bounty.status = BountyStatus.ACCEPTED;\n        bounty.acceptedFulfillmentId = fulfillmentId;\n        bounty.fulfilledOn = now;\n\n        // Transfer money to fulfiller\n        fulfillment.fulfiller.transfer(bounty.reward);\n\n        emit FulfillmentAccepted(bountyId, fulfillmentId, fulfillment.fulfiller, bounty.fulfilledOn, bounty.reward);\n    }\n\n\n\n\n    // MODIFIERS\n\n    modifier validateDeadline(uint _newDeadline) {\n        require(_newDeadline > now, \"Make deadline greater than now\");\n        _;\n    }\n\n    modifier hasValue() {\n        require(msg.value > 0, \"Make wei value greater than 0\");\n        _;\n    }\n\n    modifier bountyExists(uint bountyId) {\n        require(bountyId < bounties.length, \"Bounty does not exist\");\n        _;\n    }\n\n    modifier notIssuer(uint bountyId) {\n        Bounty memory bounty = bounties[bountyId];\n        require(bounty.issuer != msg.sender, \"Fulfillment issuer cannot be the same as Bounty Issuer\");\n        _;\n    }\n\n    modifier hasStatus(uint bountyId, BountyStatus _desiredStatus) {\n        require(bounties[bountyId].status == _desiredStatus, \"Bounty status is not the same as the desired status\");\n        _;\n    }\n\n    modifier isBeforeDeadline(uint _bountyId) {\n        require(bounties[_bountyId].deadline > now, \"Deadline has passed\");\n        _;\n    }\n\n    modifier fulfillmentExists(uint _bountyId, uint _fulfillmentId) {\n        require(_fulfillmentId < fulfillments[_bountyId].length, \"Fulfillment for given bounty id does not exist\");\n        _;\n    }\n\n    modifier isBountyIssuer(uint bountyId) {\n        require(bounties[bountyId].issuer == msg.sender, \"Only bounty issuer can accept a fulfillment\");\n        _;\n    }\n\n    modifier fulfillmentNotYetAccepted(uint bountyId, uint fulfillmentId) {\n        require(fulfillments[bountyId][fulfillmentId].accepted == false, \"Fulfillment is already accepted\" );\n        _;\n    }\n\n\n\n\n    // EVENTS\n\n    event BountyIssued(uint bountyId, address issuer, uint deadline, string data, uint reward);\n    event BountyFulfilled(uint bountyId, uint fulfillmentId, address fulfiller, string data, uint date);\n    event FulfillmentAccepted(uint bountyId, uint fulfillmentId, address fulfiller, uint fulfilledOn, uint reward);\n    event BountyCancelled(uint bountyId, uint cancelledOn);\n}",
  "sourcePath": "/Users/gchasepatron/Ethereum/bounties/contracts/Bounties.sol",
  "compiler": {
    "name": "solc",
    "version": "0.5.8+commit.23d335f2.Emscripten.clang"
  },
  "schemaVersion": "3.0.16",
  "updatedAt": "2019-09-30T15:22:24.613Z",
  "devdoc": {
    "methods": {}
  },
  "userdoc": {
    "methods": {}
  }
}